:1000000000308A009A2900000A108A100A1182071B
:1000100028340C34013406340A108A100A1182077D
:10002000543469346D34653420346F347534743429
:10003000213400340A108A100A11820743346834CC
:10004000653463346B34733475346D342034453423
:10005000723472346F347234213400340A108A10CE
:100060000A1182074E346F3420347234653473348D
:1000700070346F346E347334653400340A108A106F
:100080000A118207663472346F346D34203474344C
:10009000683465342034733465346E3473346F34AB
:1000A0007234003445308400831300080319652836
:1000B0000230F800F701F70B5B28F80B5A2897304D
:1000C000F700F70B6128800B582800344C0EF039EC
:1000D000F7000F3008057704880000000814702826
:1000E0007128081000348810F030831688008312BD
:1000F00008150000081400000808080E0F39CC008D
:1001000008100000081484280808080E0F39CB00D6
:10011000081000308316880083124C0EF700F03070
:10012000F70577084B04F8007808CB00CB1B742840
:10013000491C881049188814000008110000081094
:100140004A0ECB000F30CB054B08CC0066204A0886
:100150000F39CB00CC0066200034003083168800B5
:1001600083128810081108100F30C500522001308A
:10017000C2004208033C031CC5280330CC006620A3
:100180000530C5005220C20AB9280230CC006620D2
:10019000C2014208033C031CD62842080420C300C5
:1001A000C9014308CA007320C20AC9288A110A1269
:1001B000DF29460BDC28DF284030C700E028C701D4
:1001C00001304502C70747088038C800C901480800
:1001D000CA007320003444080C3A0319F628063A82
:1001E0000319FE28023A031904290929C90101301B
:1001F000CA0073200230C50052200F290130C5000B
:100200000230C600D9200F29C9011030CA0073205E
:100210000F290130C9004408CA0073200F29003497
:1002200083160610831206101930C50052200614DA
:100230001330F700F70B1A291D29831606148312B1
:100240008A110A12EB291A30F700F70B2529000052
:10025000061837293530F700F70B2C29061C3729EB
:100260002130F700F70B32290130F80037298A11C5
:100270000A12EC29C4013C1C3D29C2014208073C7A
:10028000031C8229C30106184E29C30A4308643C93
:1002900003184C293C144E294D2943291330F700EB
:1002A000F70B50295329061866294208073CC50058
:1002B0000130F7004508F800031962290310F70D13
:1002C000F80B5E297708FF3AC40580294208073CED
:1002D000C5000130F7004508F80003197329031021
:1002E000F70DF80B6F297708C404061C8029C30A90
:1002F0004308643C03187E293C1480297F29752912
:10030000C20A3E294408F80000344308F8014202BA
:1003100003188D294208F7009929F7010830C40015
:10032000C20DF70D430877020318F700F80DC40B50
:1003300090290034840183131F30830583161F1412
:100340009F141F159F1107309C0054308312A0008A
:100350006530A1006D30A2007030A3002030A400F1
:100360003D30A5002030A6003030A700A8002E3078
:10037000A9003030AA002030AB004330AC00AD0102
:100380005230AE004830AF002030B000B100B200B3
:100390003D30B3002030B4003030B500B6002E3010
:1003A000B7003030B8002030B9002530BA00BB01AA
:1003B00083161F149F141F159F118312AD280C3034
:1003C000C400EB200430C200FA30C5005220C20B3A
:1003D000E4293C1010292329F8080319992A3A2105
:1003E0007808BF003A217808C0003A217808BD009B
:1003F0003A217808BE003A217808C1003C1C132A33
:100400000C30C400EB200530C5000130C600D920F7
:10041000C20142080C2000380319122AC20AC40083
:10042000EB20092A982A40083F073D073E07410272
:10043000031D872A3D08C2000A30C30085213030E1
:100440007807A7003D08C2000A30C300852130307C
:100450007707A8003E08C2000A30C300852130306B
:100460007807AA003F08C2000A30C3008521303057
:100470007807B5003F08C2000A30C300852130303C
:100480007707B6004008C2000A30C300852130302B
:100490007807B800DF30AB000C30C400EB2001302F
:1004A000C500C600D920203084008313003000042A
:1004B00003196A2AC3010408C2004310831B4314B2
:1004C0000008C400EB2042088400831343188317FC
:1004D000840A562A0130C5000230C600D9202E30C9
:1004E00084008313003000040319862AC301040822
:1004F000C2004310831B43140008C400EB204208D1
:100500008400831343188317840A722A982A0C30B4
:10051000C400EB200130C500C600D920C20142084A
:100520001A2000380319982AC20AC400EB208F2A27
:10053000BA2A0C30C400EB200330C5000130C600DD
:10054000D920C20142082E2000380319AB2AC20A62
:10055000C400EB20A22A0130C5000230C600D92019
:10056000C20142083E2000380319BA2AC20AC40058
:08057000EB20B12AE22963002F
:02400E00733FFE
:00000001FF
;PIC16F877A
