:100000002FEF0CF04C3A3132302E30202D483A315F
:1000100030302E3120004E686965743A2025303327
:100020002E3166200000432020202000256C752002
:100030002D483A00EA6A290EE96EEF500EE0010EF3
:10004000016E006A002EFED7012EFBD74A0E006E0D
:10005000002EFED700D0EF2EF2D7120030B002D023
:100060008C9801D08C88959830B202D08C9A01D0AF
:100070008C8A959A30B402D08C9C01D08C8C959C43
:1000800030B602D08C9E01D08C8E959E00008C8460
:10009000959400D08C9495941200316A9588000E46
:1000A00083B8010E3112958A000E83BA010E006EDC
:1000B000D890003600503112958C000E83BC010E92
:1000C000006E00360036FC0E001600503112958E80
:1000D000000E83BE010E006E003600360036F80EAC
:1000E00000160050311231C001F012009588958A37
:1000F000958C958E8C82959200008C84959400004E
:10010000CCDF01C030F08C94959400008C849594E1
:100110000000C3DF01C02FF08C9495949598959AB8
:10012000959C959E3038006EF00E001600502F10F2
:10013000016EA1EF00F09594959095928C9095901A
:10014000D5D701C02FF001BEFBD72D5202E18C9014
:1001500001D08C80959000008C92959200008C9438
:1001600095942E382F6E0F0E2F162FC030F076DF9D
:100170002E500F0B2F6E306E71DF1200280E156E91
:100180000C0E166E010E176E060E186E8C9495945A
:100190008C9095908C9295929598959A959C959E19
:1001A0009594959095920F0E296E44DF010E146E72
:1001B0001450030808E3030E306E50DF050E296E5D
:1001C00039DF142AF5D7020E306E48DF050E296E8E
:1001D00031DF146A145003080FE3036A1450150F3B
:1001E000E96E000E0320EA6EEFCF19F02D6A19C0F8
:1001F0002EF0A1DF142AEED74AEF0CF02A2C01D002
:1002000003D0400E2B6E01D02B6A010E295C2B26E9
:100210002B5080092C6E2D6A2E6E8DDF1200285017
:10022000070A07E00B0A0AE0060A10E0020A14E0D7
:1002300018D0010E296E2A6EE1DF18D02D6A010E4A
:100240002E6E79DF020E296EF5DE10D0010E296EBA
:10025000020E2A6ED3DF0AD02D6A100E2E6E6BDFCF
:1002600005D0010E2D6E28C02EF065DF12000900AA
:10027000F5520CE0F6CF14F0F7CF15F0F5CF28F0DB
:10028000CEDF14C0F6FF15C0F7FFF1D712008E0EB7
:10029000006E20C001F01FC002F0036A015209E1A4
:1002A00002C001F0026A080E005E015202E1006A1B
:1002B00008D0D89001BE04D0023601360006F9D726
:1002C000019E12001F50D8B4A5D02B6E2350D8B475
:1002D000A1D02B5E05E37F0E2B26D8B09BD006D095
:1002E000810E2B5ED8A096D0D8B494D02BC000F04D
:1002F000016A026A036A2A6A20C029F0298E21C095
:1003000028F022C027F0190E2B6E2650275E0DE232
:10031000010E285E0AE2295E08E22A5E06E22A2A27
:10032000292A282A2650272628D02550285E12E27E
:10033000010E295E0FE22A5E0DE22A2A292A2550A3
:1003400028262650272619E3282A17E1292A15E10D
:100350002A2A13D024508009295E0EE2010E2A5E5B
:100360000BE22A2A24508009292625502826E9E371
:10037000292AE7E12A2AE5D703802B2E01D00BD0CA
:10038000D8902736283629362A36D89003360236B2
:1003900001362C36BAD72CA006D0D89001320232C2
:1003A00003322C3202D0000635E02CBE1ED0D8908D
:1003B0002736283629362A362650275E07E2010ED0
:1003C000285E04E2295E02E22A5E1AE32550285ED6
:1003D00005E2010E295E02E22A5E12E32450800942
:1003E000295E03E2010E2A5E0BE3032A09E1022AD9
:1003F00007E1012A05E1002A0DE001320232033251
:1004000020C02BF024502B1A2BAE02D0018E06D028
:10041000019E04D0006A016A026A036A1200215038
:10042000D8B471D0006E2550D8B46DD0002604E346
:10043000810E002668E204D07F0E005E64E363E074
:1004400022C029F02650291A228E268E24502802F6
:10045000F4CF2BF023502702F4CF03F0F3CF2AF090
:100460002802F3502B26F4502A22000E0322245097
:100470002702F3502B26F4502A22000E026A032290
:10048000022222502802F3502A26F4500322000EA2
:10049000022222502702F3500326F4500222000EBB
:1004A000016A012224502602F3502A26F450032226
:1004B000000E0222012223502602F3500326F4509C
:1004C0000222000E012222502602F3500226F4508E
:1004D0000122002A01BE05D02A3603360236013633
:1004E0000006000E2AAE0AD0032A02220122015081
:1004F00005E1025003E1035001E1002A29BE018E0B
:1005000029AE019E04D0006A016A026A036A1200E1
:100510008E0E006E2150005E22C002F023C001F05A
:10052000028E005209E0D890025202E1015204E02A
:1005300002320132002EF7D722AE05D0011E021E74
:10054000012AD8B4022A12000DC024F00CC023F0F6
:100550000BC022F00AC021F0286A276A200E266EFE
:10056000820E256E5CDF03C024F002C023F001C0C0
:1005700022F000C021F0CCDF02C020F001C01FF04B
:100580001FC01EF020C01DF0F250006EF29E010E42
:10059000A96E1EC0A8FFA69CA69EA6840F01550E9C
:1005A000A76EAA0EA76EA682A6B2FED7A69400508A
:1005B000F212F2CF00F0F29E020EA96E1DC0A8FF4B
:1005C000A69CA69EA684550EA76EAA0EA76EA6820E
:1005D000A6B2FED7A6940050F21211C024F010C0AB
:1005E00023F00FC022F00EC021F0286A276A200EE7
:1005F000266E820E256E000112DF03C024F002C0B9
:1006000023F001C022F000C021F082DF02C020F000
:1006100001C01FF01FC01EF020C01DF0F250006E80
:10062000F29E030EA96E1EC0A8FFA69CA69EA684DD
:100630000F01550EA76EAA0EA76EA682A6B2FED710
:10064000A6940050F212F2CF00F0F29E040EA96EB2
:100650001DC0A8FFA69CA69EA684550EA76EAA0E36
:10066000A76EA682A6B2FED7A6940050F212000191
:100670001200F2CF17F0F29EA96AA69CA69EA68051
:10068000A85017BEF28E166E16505508D8A47DD00D
:10069000F2CF17F0F29E010EA96EA69CA69EA68030
:1006A000A85017BEF28E156EF2CF17F0F29E020E12
:1006B000A96EA69CA69EA680A85017BEF28E146EA8
:1006C00014C003F015C01FF014C020F0E0DD03C01B
:1006D0000DF002C00CF001C00BF000C00AF00DC01C
:1006E00022F00CC021F00BC020F00AC01FF0266AD7
:1006F000256A200E246E820E236EE4DD03C00DF009
:1007000002C00CF001C00BF000C00AF0F2CF17F0ED
:10071000F29E030EA96EA69CA69EA680A85017BEA8
:10072000F28E156EF2CF17F0F29E040EA96EA69C03
:10073000A69EA680A85017BEF28E146E14C003F0B9
:1007400015C01FF014C020F0A2DD03C011F002C0DC
:1007500010F001C00FF000C00EF011C022F010C068
:1007600021F00FC020F00EC01FF0266A256A200E6F
:10077000246E820E236EA6DD03C011F002C010F0BD
:1007800001C00FF000C00EF021D0F250006EF29EBA
:10079000A96A550EA86EA69CA69EA6840F01A76EF8
:1007A000AA0EA76EA682A6B2FED7A6940050F21299
:1007B0000D6A0C6A200E0B6E830E0A6E116A106AA7
:1007C0000C0E0F6E840E0E6E0001BEDE58EF0CF0A4
:1007D00096908D90A60E006E002EFED7000096809B
:1007E000520E006E002EFED700D0000012001D6ACF
:1007F0001D50070811E396908D90D8901C3202E2AC
:100800008D9001D08D809690130E006E002EFED735
:1008100000D096801D2AECD71200016A026A006A95
:10082000036A245002E1235018E0100E256ED89080
:1008300021362236003603362450035C02E1235071
:10084000005C07E32350005ED8A003062450035E3B
:10085000D88001360236252EEAD71200045004084B
:10086000D8A0C6D00DC024F00CC023F00BC022F0DD
:100870000AC021F0286A276A200E266E820E256E95
:10088000CEDD03C024F002C023F001C022F000C07E
:1008900021F03EDE02C01EF001C01DF0045004082D
:1008A00017E11D2AD8B41E2A1EC022F01DC021F057
:1008B000246A0A0E236EB1DF00C01FF003C020F0CF
:1008C0001F5206E1205204E10A0E1D5E000E1E5A60
:1008D0000450030824E10A0E1D26000E1E221EC02D
:1008E00022F01DC021F0246A0A0E236E96DF02C09A
:1008F00020F001C01FF002C022F001C021F0246AE4
:100900000A0E236E8ADF00C01FF003C020F01F52C2
:1009100006E1205204E1640E1D5E000E1E5A0450D2
:10092000020824E1640E1D26000E1E221EC022F0C5
:100930001DC021F0246A640E236E6FDF02C020F018
:1009400001C01FF002C022F001C021F0246A0A0E8B
:10095000236E63DF00C01FF003C020F01F5206E1CA
:10096000205204E1E80E1D5E030E1E5A042C1BD01B
:10097000E80E1D26030E1E221EC022F01DC021F00F
:10098000246EE80E236E49DF02C020F001C01FF084
:10099000010E1F16206A1F5206E1205204E1D00EFC
:1009A0001D5E070E1E5A1EC020F01DC01FF06FDC1A
:1009B00003C00DF002C00CF001C00BF000C00AF043
:1009C0000DC022F00CC021F00BC020F00AC01FF0B7
:1009D000266A256A200E246E820E236E73DC03C005
:1009E0000DF002C00CF001C00BF000C00AF0C8D03E
:1009F00011C024F010C023F00FC022F00EC021F06F
:100A0000286A276A200E266E820E256E08DD03C036
:100A100024F002C023F001C022F000C021F078DDF4
:100A200002C01EF001C01DF00450080817E11D2A85
:100A3000D8B41E2A1EC022F01DC021F0246A0A0E5E
:100A4000236EEBDE00C01FF003C020F01F5206E152
:100A5000205204E10A0E1D5E000E1E5A04500708C3
:100A600024E10A0E1D26000E1E221EC022F01DC00B
:100A700021F0246A0A0E236ED0DE02C020F001C0ED
:100A80001FF002C022F001C021F0246A0A0E236E7A
:100A9000C4DE00C01FF003C020F01F5206E1205248
:100AA00004E1640E1D5E000E1E5A0450060824E187
:100AB000640E1D26000E1E221EC022F01DC021F055
:100AC000246A640E236EA9DE02C020F001C01FF06C
:100AD00002C022F001C021F0246A0A0E236E9DDEBE
:100AE00000C01FF003C020F01F5206E1205204E1B5
:100AF000E80E1D5E030E1E5A045005081BE1E80EA9
:100B00001D26030E1E221EC022F01DC021F0246EE1
:100B1000E80E236E82DE02C020F001C01FF0010E3D
:100B20001F16206A1F5206E1205204E1D00E1D5EFE
:100B3000070E1E5A1EC020F01DC01FF047EC01F02A
:100B400003C011F002C010F001C00FF000C00EF0A1
:100B500011C022F010C021F00FC020F00EC01FF015
:100B6000266A256A200E246E820E236E62EC01F046
:100B700003C011F002C010F001C00FF000C00EF071
:100B8000D3EF09F0EACF27F0E9CF26F02038F009BB
:100B9000226E2226E20F236E320F256E20500F0B9D
:100BA000232623262526E90F246E242624261F38F3
:100BB0000F0B2426252624362536251E25361F50C4
:100BC0000F0B25262236070E216E0A0E2406252637
:100BD000FDE323062426FDE322062326FDE321066A
:100BE0002226FDE3EA6A210EE96E070E2614269CF2
:100BF000E926000EEA22E950250803E1EA5201E164
:100C0000268CEF50006E08E126BC06D026B814D022
:100C100026B602D0200E03D026862698300E002657
:100C2000EACF20F0E9CF1FF000C028F00FEC01F070
:100C300020C0EAFF1FC0E9FFEE5026ACDCD712004F
:100C40000900F6CF20F0F7CF21F0F5CF28F00FEC18
:100C500001F020C0F6FF21C0F7FF1F2EF1D71200D0
:100C60000DC024F00CC023F00BC022F00AC021F00C
:100C70004FDC02C01EF001C01DF0010E296E020EF5
:100C80002A6EFEEC00F04C0E286E0FEC01F03A0ECE
:100C9000286E0FEC01F00A0EE96E1EC020F01DC098
:100CA0001FF070DF2E0E286E0FEC01F00DC024F047
:100CB0000CC023F00BC022F00AC021F0286A276A7A
:100CC000200E266E820E256E0FEC02F003C024F07B
:100CD00002C023F001C022F000C021F019DC02C0E4
:100CE0001EF001C01DF01EC022F01DC021F0246ABC
:100CF0000A0E236E92DD00C01DF003C01EF0100E20
:100D0000E96E1EC020F01DC01FF03CDF2F0EF66EF6
:100D1000000EF76E040E1F6E93DF11C024F010C09A
:100D200023F00FC022F00EC021F088EC02F002C0C8
:100D30001EF001C01DF00A0EE96E1EC020F01DC09D
:100D40001FF020DF2E0E286E0FEC01F011C024F0F2
:100D500010C023F00FC022F00EC021F0286A276ACD
:100D6000200E266E820E256E0FEC02F003C024F0DA
:100D700002C023F001C022F000C021F088EC02F094
:100D800002C01EF001C01DF01EC022F01DC021F0E7
:100D9000246A0A0E236E41DD00C01DF003C01EF060
:100DA000100EE96E1EC020F01DC01FF0EBDE120019
:100DB00004500408D8A030D10DC024F00CC023F09A
:100DC0000BC022F00AC021F0286A276A200E266E86
:100DD000820E256E0FEC02F003C024F002C023F057
:100DE00001C022F000C021F088EC02F002C01EF029
:100DF00001C01DF0045004082EE11EC022F01DC0E9
:100E000021F0246A0A0E236E08DD00C01FF003C023
:100E100020F01F5207E1205205E1090E1D26000EA9
:100E20001E2219D0010E1D5E000E1E5A1EC022F099
:100E30001DC021F0246A0A0E236EEFDC00C01FF0F3
:100E400003C020F00050090806E1205204E10A0E18
:100E50001D26000E1E220450030846E11EC022F08B
:100E60001DC021F0246A0A0E236ED7DC02C020F0D8
:100E700001C01FF002C022F001C021F0246A0A0E56
:100E8000236ECBDC00C01FF003C020F01F5207E12F
:100E9000205205E15A0E1D26000E1E2225D00A0EF4
:100EA0001D5E000E1E5A1EC022F01DC021F0246AD5
:100EB0000A0E236EB2DC02C020F001C01FF002C097
:100EC00022F001C021F0246A0A0E236EA6DC00C0C5
:100ED0001FF003C020F00050090806E1205204E191
:100EE000640E1D26000E1E220450020846E11EC09C
:100EF00022F01DC021F0246A640E236E8EDC02C035
:100F000020F001C01FF002C022F001C021F0246ACD
:100F10000A0E236E82DC00C01FF003C020F01F52B7
:100F200007E1205205E1840E1D26030E1E2225D066
:100F3000640E1D5E000E1E5A1EC022F01DC021F060
:100F4000246A640E236E69DC02C020F001C01FF029
:100F500002C022F001C021F0246A0A0E236E5DDC7B
:100F600000C01FF003C020F00050090806E1205225
:100F700004E1E80E1D26030E1E22042C26D01EC0FE
:100F800022F01DC021F0030E246EE80E236E45DC16
:100F900002C020F001C01FF002C022F001C021F009
:100FA000246A0A0E236E39DC00C01FF003C020F053
:100FB0001F5207E1205205E1E80E1D26030E1E22F6
:100FC00004D0E80E1D5E030E1E5A1EC020F01DC088
:100FD0001FF047EC01F003C00DF002C00CF001C09F
:100FE0000BF000C00AF00DC022F00CC021F00BC0C5
:100FF00020F00AC01FF0266A256A200E246E820E99
:10100000236E62EC01F003C00DF002C00CF001C0D1
:101010000BF000C00AF03CD111C024F010C023F046
:101020000FC022F00EC021F0286A276A200E266E1B
:10103000820E256E0FEC02F003C024F002C023F0F4
:1010400001C022F000C021F088EC02F002C01EF0C6
:1010500001C01DF00450080830E11EC022F01DC080
:1010600021F0246A0A0E236E0DEC04F000C01FF07C
:1010700003C020F01F5207E1205205E1090E1D2692
:10108000000E1E221AD0010E1D5E000E1E5A1EC03A
:1010900022F01DC021F0246A0A0E236E0DEC04F02C
:1010A00000C01FF003C020F00050090806E12052E4
:1010B00004E10A0E1D26000E1E22045007084AE114
:1010C0001EC022F01DC021F0246A0A0E236E0DEC12
:1010D00004F002C020F001C01FF002C022F001C0E5
:1010E00021F0246A0A0E236E0DEC04F000C01FF0FC
:1010F00003C020F01F5207E1205205E15A0E1D26C1
:10110000000E1E2227D00A0E1D5E000E1E5A1EC0A3
:1011100022F01DC021F0246A0A0E236E0DEC04F0AB
:1011200002C020F001C01FF002C022F001C021F077
:10113000246A0A0E236E0DEC04F000C01FF003C0F9
:1011400020F00050090806E1205204E1640E1D263B
:10115000000E1E22045006084AE11EC022F01DC0E7
:1011600021F0246A640E236E0DEC04F002C020F01E
:1011700001C01FF002C022F001C021F0246A0A0E53
:10118000236E0DEC04F000C01FF003C020F01F52CE
:1011900007E1205205E1840E1D26030E1E2227D0F2
:1011A000640E1D5E000E1E5A1EC022F01DC021F0EE
:1011B000246A640E236E0DEC04F002C020F001C01E
:1011C0001FF002C022F001C021F0246A0A0E236E33
:1011D0000DEC04F000C01FF003C020F0005009081F
:1011E00006E1205204E1E80E1D26030E1E220450E3
:1011F000050828E11EC022F01DC021F0030E246E58
:10120000E80E236E0DEC04F002C020F001C01FF0C8
:1012100002C022F001C021F0246A0A0E236E0DECF8
:1012200004F000C01FF003C020F01F5207E120525D
:1012300005E1E80E1D26030E1E2204D0E80E1D5EF9
:10124000030E1E5A1EC020F01DC01FF047EC01F017
:1012500003C011F002C010F001C00FF000C00EF08A
:1012600011C022F010C021F00FC020F00EC01FF0FE
:10127000266A256A200E246E820E236E62EC01F02F
:1012800003C011F002C010F001C00FF000C00EF05A
:10129000DCEF09F00452D8B47AD005A201D0E0DC2A
:1012A00005B20CD0042C0AD0030E296E020E2A6E51
:1012B000FEEC00F0200E286E0FEC01F005B20DD010
:1012C000045002080AE1040E296E020E2A6EFEEC9A
:1012D00000F0200E286E0FEC01F005B20DD0045086
:1012E00003080AE1050E296E020E2A6EFEEC00F0DC
:1012F000200E286E0FEC01F005B20DD0045004084A
:101300000AE1070E296E020E2A6EFEEC00F0200E96
:10131000286E0FEC01F005B20DD0045005080AE16B
:101320000C0E296E020E2A6EFEEC00F0200E286EC6
:101330000FEC01F005B20DD0045006080AE10D0EC5
:10134000296E020E2A6EFEEC00F0200E286E0FECC5
:1013500001F005B20DD0045007080AE10E0E296E07
:10136000020E2A6EFEEC00F0200E286E0FEC01F04B
:1013700005B20DD0045008080AE1100E296E020EC5
:101380002A6EFEEC00F0200E286E0FEC01F0120029
:1013900005A024D0938081B007D005900582136A00
:1013A000126A2EEF04F05CDC938281B206D00590C5
:1013B0000582136A126AFCD453DC938481B40DD085
:1013C00005900592136A126A042A0450080803E281
:1013D000046AA4EC02F044DC5DDF0AD0938081A0B3
:1013E00007D0938281A204D0938481A401D0058088
:1013F000FFEF09F01C6A1C504A0812E3C9D70A0E15
:10140000296E1AEC00F0045209E0122AD8B4132A0B
:10141000135203E112500F0801E205721C2AEBD7A8
:1014200035EF0AF01C6A1C50070811E396908D9066
:101430009680968084B002D0D89001D0D8801D329A
:10144000130E006E002EFED700D01C2AECD71DC054
:1014500001F01200E8EC03F0CC0E1C6EF7EC03F088
:10146000440E1C6EF7EC03F0C5D7E8EC03F0CC0E8D
:101470001C6EF7EC03F0BE0E1C6EF7EC03F0D2DF2F
:1014800001C014F0CFDF01C015F015C017F014C073
:1014900016F017C020F016C01FF047EC01F003C093
:1014A00022F002C021F001C020F000C01FF0266A27
:1014B000256A246A830E236E62EC01F003C01BF0E0
:1014C00002C01AF001C019F000C018F01BC024F0CF
:1014D0001AC023F019C022F018C021F0286A276A28
:1014E000200E266E820E256E0FEC02F003C01BF05C
:1014F00002C01AF001C019F000C018F01BC024F09F
:101500001AC023F019C022F018C021F088EC02F0B4
:10151000025059EF0CF02150B608216E036A22C028
:1015200025F0228ED8902232233224320332023226
:1015300001320032212EF6D725AE0BD0001E011E3F
:10154000021E031E002AD8B4012AD8B4022AD8B435
:10155000032A1AEF0BF0D8B203D0EA6A290EE96E1B
:10156000006A016A026A036A296A2A6A2B6A2C6A7B
:1015700028502710261025102CE0200E2D6ED89014
:10158000213622362336243629362A362B362C3677
:1015900028502C5C08E127502B5C05E126502A5C82
:1015A00002E12550295C0FE32550295E2650D8A082
:1015B000263C2A5E2750D8A0273C2B5E2850D8A076
:1015C000283C2C5ED88000360136023603362D2E9C
:1015D000D6D729C0EFFF2AC0ECFF2BC0ECFF2CC0F0
:1015E000ECFF1200E950196E18501B6E1AE017C07C
:1015F00024F016C023F015C022F014C021F0286A90
:10160000276A200E266E820E256E0FEC02F003C0B4
:1016100017F002C016F001C015F000C014F01B2E28
:10162000E6D717C024F016C023F015C022F014C06E
:1016300021F071D703C017F002C016F001C015F0F9
:1016400000C014F017AE0DD01906198A141E151E0D
:10165000161E171E142AD8B4152AD8B4162AD8B4C0
:10166000172A3B0E206E9A0E1F6ECA0E1E6E1D6A42
:101670000A0E1B6E1850D8B4192AD882EA6A140EC2
:10168000E96E17C024F016C023F015C022F014C074
:1016900021F020C028F01FC027F01EC026F01DC07A
:1016A00025F059DF015000520FE118281B5C0CE0B7
:1016B00019500CE00F0B1B5C01E03BE219BE39D066
:1016C00019BC04D0200E30D0200E191619AA0DD046
:1016D000199A1850D8A419060050196E2D0E286EAC
:1016E0000FEC01F01950006E196A18501B5C0BE1E9
:1016F0000050196E2E0E286E0FEC01F01950006E7E
:10170000200E1916000E300E19AA0ED0199A185074
:10171000D8A419060050196E2D0E286E0FEC01F09A
:101720001950006E196A300E002600C028F00FEC28
:1017300001F0D89220C024F01FC023F01EC022F078
:101740001DC021F0286A276A266A0A0E256E03DF6B
:1017500003C020F002C01FF001C01EF000C01DF049
:101760001B2E8BD799EF0CF015C01CF019501C1ACA
:101770001CAE05D0D894D89015BED8802FD015C0F7
:101780001CF018C01DF014501D5E06E01CAE26D0E3
:10179000D850010AD86E22D019C01DF015501D5E18
:1017A00006E01CAE1BD0D850010AD86E17D01AC064
:1017B0001DF016501D5E06E01CAE10D0D850010A78
:1017C000D86E0CD01BC01DF017501D5E06E01CAE7D
:1017D00005D0D850010AD86E01D0D890120009C0A7
:1017E00017F008C016F007C015F006C014F00DC0C1
:1017F0001BF00CC01AF00BC019F00AC018F0B4DFCF
:1018000009E394908B8094928B929290898092922B
:10181000899223D011C017F010C016F00FC015F038
:101820000EC014F009C01BF008C01AF007C019F070
:1018300006C018F099DF09E394928B8294908B9004
:10184000929289829290899008D094928B929490EF
:101850008B909290899092928992ADEF0CF0F86AF9
:10186000D09E046A0590330E0D6E0C6E4A0E0B6E00
:10187000850E0A6E660E116E106E720E0F6E850E5C
:101880000E6EC150C00B0F09C16E070EB46EC29030
:10189000BEEF00F0010E296E020E2A6EFEEC00F083
:1018A000040EF66E000EF76E37EC01F039EF03F020
:1018B000D1D502C020F001C01FF047EC01F003C0F9
:1018C00009F002C008F001C007F000C006F009C02E
:1018D00022F008C021F007C020F006C01FF0266AE1
:1018E000256A200E246E820E236E62EC01F003C086
:1018F00009F002C008F001C007F000C006F0010EB8
:10190000296E2A6EFEEC00F0160EF66E000EF76ED3
:10191000070E1F6E20EC06F0420EE96E09C017F0AC
:1019200008C016F007C015F006C014F0010E186EBE
:1019300059D6200E286E0FEC01F0DF0E286E0FEC4A
:1019400001F0260EF66E000EF76E37EC01F0045231
:0E19500002E130EC06F09EDC42D7AAD703007D
:020000040030CA
:0E00000027CC381E0087A1000FC00FE00F4074
:00000001FF
;PIC18F4550
;CRC=D3BA  CREATED="16-Thg7-20 22:52"
